{
  "contractName": "Inssurance",
  "abi": [
    {
      "inputs": [],
      "stateMutability": "nonpayable",
      "type": "constructor"
    },
    {
      "inputs": [
        {
          "internalType": "address",
          "name": "",
          "type": "address"
        }
      ],
      "name": "addressToAmountReimb",
      "outputs": [
        {
          "internalType": "uint256",
          "name": "",
          "type": "uint256"
        }
      ],
      "stateMutability": "view",
      "type": "function",
      "constant": true
    },
    {
      "inputs": [],
      "name": "fees",
      "outputs": [
        {
          "internalType": "uint256",
          "name": "",
          "type": "uint256"
        }
      ],
      "stateMutability": "view",
      "type": "function",
      "constant": true
    },
    {
      "inputs": [],
      "name": "getBalance",
      "outputs": [
        {
          "internalType": "uint256",
          "name": "",
          "type": "uint256"
        }
      ],
      "stateMutability": "view",
      "type": "function",
      "constant": true
    },
    {
      "inputs": [
        {
          "internalType": "string",
          "name": "_name",
          "type": "string"
        },
        {
          "internalType": "string",
          "name": "_email",
          "type": "string"
        },
        {
          "internalType": "string",
          "name": "_number",
          "type": "string"
        },
        {
          "internalType": "string",
          "name": "_x",
          "type": "string"
        },
        {
          "internalType": "string",
          "name": "_y",
          "type": "string"
        }
      ],
      "name": "register",
      "outputs": [],
      "stateMutability": "nonpayable",
      "type": "function"
    },
    {
      "inputs": [
        {
          "internalType": "uint256",
          "name": "time",
          "type": "uint256"
        }
      ],
      "name": "pay",
      "outputs": [],
      "stateMutability": "payable",
      "type": "function",
      "payable": true
    },
    {
      "inputs": [
        {
          "internalType": "address",
          "name": "_add",
          "type": "address"
        }
      ],
      "name": "getFarmer",
      "outputs": [
        {
          "internalType": "address",
          "name": "farmerAddress",
          "type": "address"
        },
        {
          "internalType": "string",
          "name": "name",
          "type": "string"
        },
        {
          "internalType": "string",
          "name": "email",
          "type": "string"
        },
        {
          "internalType": "string",
          "name": "number",
          "type": "string"
        },
        {
          "internalType": "string",
          "name": "x",
          "type": "string"
        },
        {
          "internalType": "string",
          "name": "y",
          "type": "string"
        },
        {
          "internalType": "bool",
          "name": "registred",
          "type": "bool"
        },
        {
          "internalType": "bool",
          "name": "payed",
          "type": "bool"
        },
        {
          "internalType": "uint256",
          "name": "amountFunded",
          "type": "uint256"
        },
        {
          "internalType": "uint256",
          "name": "amountReimb",
          "type": "uint256"
        },
        {
          "internalType": "uint256",
          "name": "t",
          "type": "uint256"
        }
      ],
      "stateMutability": "view",
      "type": "function",
      "constant": true
    },
    {
      "inputs": [
        {
          "internalType": "uint256",
          "name": "value",
          "type": "uint256"
        }
      ],
      "name": "withdraw",
      "outputs": [],
      "stateMutability": "nonpayable",
      "type": "function"
    },
    {
      "inputs": [
        {
          "internalType": "uint256",
          "name": "damage",
          "type": "uint256"
        }
      ],
      "name": "remboursser",
      "outputs": [],
      "stateMutability": "nonpayable",
      "type": "function"
    },
    {
      "inputs": [
        {
          "internalType": "address",
          "name": "farmerAddress",
          "type": "address"
        }
      ],
      "name": "unregister",
      "outputs": [],
      "stateMutability": "nonpayable",
      "type": "function"
    }
  ],
  "bytecode": "0x6080604052662386f26fc1000060035534801561001b57600080fd5b5033600460006101000a81548173ffffffffffffffffffffffffffffffffffffffff021916908373ffffffffffffffffffffffffffffffffffffffff1602179055506121618061006c6000396000f3fe6080604052600436106100865760003560e01c80635a09007b116100595780635a09007b146101455780639af1d35a1461016e578063c290d69114610199578063e7609c16146101b5578063eb861f36146101fc57610086565b806312065fe01461008b57806327b1d66a146100b65780632e1a7d4d146100f35780632ec2c2461461011c575b600080fd5b34801561009757600080fd5b506100a0610225565b6040516100ad9190611697565b60405180910390f35b3480156100c257600080fd5b506100dd60048036038101906100d89190611724565b61022d565b6040516100ea9190611697565b60405180910390f35b3480156100ff57600080fd5b5061011a6004803603810190610115919061177d565b610245565b005b34801561012857600080fd5b50610143600480360381019061013e9190611724565b61039e565b005b34801561015157600080fd5b5061016c60048036038101906101679190611950565b610492565b005b34801561017a57600080fd5b50610183610814565b6040516101909190611697565b60405180910390f35b6101b360048036038101906101ae919061177d565b61081a565b005b3480156101c157600080fd5b506101dc60048036038101906101d79190611724565b610a87565b6040516101f39b9a99989796959493929190611b0c565b60405180910390f35b34801561020857600080fd5b50610223600480360381019061021e919061177d565b611081565b005b600047905090565b60056020528060005260406000206000915090505481565b600460009054906101000a900473ffffffffffffffffffffffffffffffffffffffff1673ffffffffffffffffffffffffffffffffffffffff163373ffffffffffffffffffffffffffffffffffffffff16146102d5576040517f08c379a00000000000000000000000000000000000000000000000000000000081526004016102cc90611c26565b60405180910390fd5b6000670de0b6b3a7640000826102eb9190611c75565b905060003373ffffffffffffffffffffffffffffffffffffffff168260405161031390611d00565b60006040518083038185875af1925050503d8060008114610350576040519150601f19603f3d011682016040523d82523d6000602084013e610355565b606091505b5050905080610399576040517f08c379a000000000000000000000000000000000000000000000000000000000815260040161039090611d61565b60405180910390fd5b505050565b60011515600160008373ffffffffffffffffffffffffffffffffffffffff1673ffffffffffffffffffffffffffffffffffffffff16815260200190815260200160002060070160149054906101000a900460ff16151514610434576040517f08c379a000000000000000000000000000000000000000000000000000000000815260040161042b90611dcd565b60405180910390fd5b6000600160008373ffffffffffffffffffffffffffffffffffffffff1673ffffffffffffffffffffffffffffffffffffffff16815260200190815260200160002060070160156101000a81548160ff02191690831515021790555050565b60001515600160003373ffffffffffffffffffffffffffffffffffffffff1673ffffffffffffffffffffffffffffffffffffffff16815260200190815260200160002060070160149054906101000a900460ff16151514610528576040517f08c379a000000000000000000000000000000000000000000000000000000000815260040161051f90611e39565b60405180910390fd5b85600160003373ffffffffffffffffffffffffffffffffffffffff1673ffffffffffffffffffffffffffffffffffffffff168152602001908152602001600020600001908051906020019061057e929190611555565b5084600160003373ffffffffffffffffffffffffffffffffffffffff1673ffffffffffffffffffffffffffffffffffffffff16815260200190815260200160002060010190805190602001906105d5929190611555565b5083600160003373ffffffffffffffffffffffffffffffffffffffff1673ffffffffffffffffffffffffffffffffffffffff168152602001908152602001600020600201908051906020019061062c929190611555565b508282600160003373ffffffffffffffffffffffffffffffffffffffff1673ffffffffffffffffffffffffffffffffffffffff168152602001908152602001600020600301919061067e9291906115db565b5080600160003373ffffffffffffffffffffffffffffffffffffffff1673ffffffffffffffffffffffffffffffffffffffff16815260200190815260200160002060040190805190602001906106d5929190611555565b5060018060003373ffffffffffffffffffffffffffffffffffffffff1673ffffffffffffffffffffffffffffffffffffffff16815260200190815260200160002060070160146101000a81548160ff02191690831515021790555033600160003373ffffffffffffffffffffffffffffffffffffffff1673ffffffffffffffffffffffffffffffffffffffff16815260200190815260200160002060070160006101000a81548173ffffffffffffffffffffffffffffffffffffffff021916908373ffffffffffffffffffffffffffffffffffffffff1602179055506000600160003373ffffffffffffffffffffffffffffffffffffffff1673ffffffffffffffffffffffffffffffffffffffff16815260200190815260200160002060070160156101000a81548160ff021916908315150217905550505050505050565b60035481565b60011515600160003373ffffffffffffffffffffffffffffffffffffffff1673ffffffffffffffffffffffffffffffffffffffff16815260200190815260200160002060070160149054906101000a900460ff161515146108b0576040517f08c379a00000000000000000000000000000000000000000000000000000000081526004016108a790611ea5565b60405180910390fd5b60001515600160003373ffffffffffffffffffffffffffffffffffffffff1673ffffffffffffffffffffffffffffffffffffffff16815260200190815260200160002060070160159054906101000a900460ff16151514610946576040517f08c379a000000000000000000000000000000000000000000000000000000000815260040161093d90611f11565b60405180910390fd5b600354341161098a576040517f08c379a000000000000000000000000000000000000000000000000000000000815260040161098190611f7d565b60405180910390fd5b60018060003373ffffffffffffffffffffffffffffffffffffffff1673ffffffffffffffffffffffffffffffffffffffff16815260200190815260200160002060070160156101000a81548160ff02191690831515021790555034600160003373ffffffffffffffffffffffffffffffffffffffff1673ffffffffffffffffffffffffffffffffffffffff1681526020019081526020016000206005016000828254610a369190611f9d565b9250508190555080600160003373ffffffffffffffffffffffffffffffffffffffff1673ffffffffffffffffffffffffffffffffffffffff1681526020019081526020016000206008018190555050565b600060608060608060606000806000806000600160008d73ffffffffffffffffffffffffffffffffffffffff1673ffffffffffffffffffffffffffffffffffffffff16815260200190815260200160002060070160009054906101000a900473ffffffffffffffffffffffffffffffffffffffff169a50600160008d73ffffffffffffffffffffffffffffffffffffffff1673ffffffffffffffffffffffffffffffffffffffff1681526020019081526020016000206000018054610b4b90612022565b80601f0160208091040260200160405190810160405280929190818152602001828054610b7790612022565b8015610bc45780601f10610b9957610100808354040283529160200191610bc4565b820191906000526020600020905b815481529060010190602001808311610ba757829003601f168201915b50505050509950600160008d73ffffffffffffffffffffffffffffffffffffffff1673ffffffffffffffffffffffffffffffffffffffff16815260200190815260200160002060070160149054906101000a900460ff169450600160008d73ffffffffffffffffffffffffffffffffffffffff1673ffffffffffffffffffffffffffffffffffffffff16815260200190815260200160002060070160159054906101000a900460ff169350600160008d73ffffffffffffffffffffffffffffffffffffffff1673ffffffffffffffffffffffffffffffffffffffff1681526020019081526020016000206001018054610cbc90612022565b80601f0160208091040260200160405190810160405280929190818152602001828054610ce890612022565b8015610d355780601f10610d0a57610100808354040283529160200191610d35565b820191906000526020600020905b815481529060010190602001808311610d1857829003601f168201915b50505050509850600160008d73ffffffffffffffffffffffffffffffffffffffff1673ffffffffffffffffffffffffffffffffffffffff1681526020019081526020016000206002018054610d8990612022565b80601f0160208091040260200160405190810160405280929190818152602001828054610db590612022565b8015610e025780601f10610dd757610100808354040283529160200191610e02565b820191906000526020600020905b815481529060010190602001808311610de557829003601f168201915b50505050509750600160008d73ffffffffffffffffffffffffffffffffffffffff1673ffffffffffffffffffffffffffffffffffffffff1681526020019081526020016000206003018054610e5690612022565b80601f0160208091040260200160405190810160405280929190818152602001828054610e8290612022565b8015610ecf5780601f10610ea457610100808354040283529160200191610ecf565b820191906000526020600020905b815481529060010190602001808311610eb257829003601f168201915b50505050509650600160008d73ffffffffffffffffffffffffffffffffffffffff1673ffffffffffffffffffffffffffffffffffffffff1681526020019081526020016000206004018054610f2390612022565b80601f0160208091040260200160405190810160405280929190818152602001828054610f4f90612022565b8015610f9c5780601f10610f7157610100808354040283529160200191610f9c565b820191906000526020600020905b815481529060010190602001808311610f7f57829003601f168201915b50505050509550600160008d73ffffffffffffffffffffffffffffffffffffffff1673ffffffffffffffffffffffffffffffffffffffff168152602001908152602001600020600501549250600160008d73ffffffffffffffffffffffffffffffffffffffff1673ffffffffffffffffffffffffffffffffffffffff168152602001908152602001600020600601549150600160008d73ffffffffffffffffffffffffffffffffffffffff1673ffffffffffffffffffffffffffffffffffffffff16815260200190815260200160002060080154905091939597999b90929496989a50565b600381116110c4576040517f08c379a00000000000000000000000000000000000000000000000000000000081526004016110bb9061209f565b60405180910390fd5b60011515600160003373ffffffffffffffffffffffffffffffffffffffff1673ffffffffffffffffffffffffffffffffffffffff16815260200190815260200160002060070160149054906101000a900460ff1615151461115a576040517f08c379a000000000000000000000000000000000000000000000000000000000815260040161115190611dcd565b60405180910390fd5b60011515600160003373ffffffffffffffffffffffffffffffffffffffff1673ffffffffffffffffffffffffffffffffffffffff16815260200190815260200160002060070160159054906101000a900460ff161515146111f0576040517f08c379a00000000000000000000000000000000000000000000000000000000081526004016111e79061210b565b60405180910390fd5b6006811015611308573373ffffffffffffffffffffffffffffffffffffffff166108fc670429d069189e00009081150290604051600060405180830381858888f19350505050158015611247573d6000803e3d6000fd5b50670429d069189e0000600560003373ffffffffffffffffffffffffffffffffffffffff1673ffffffffffffffffffffffffffffffffffffffff168152602001908152602001600020600082825461129f9190611f9d565b92505081905550670429d069189e0000600160003373ffffffffffffffffffffffffffffffffffffffff1673ffffffffffffffffffffffffffffffffffffffff16815260200190815260200160002060060160008282546113009190611f9d565b925050819055505b6008811115801561131a575060068110155b1561142e573373ffffffffffffffffffffffffffffffffffffffff166108fc67058d15e1762800009081150290604051600060405180830381858888f1935050505015801561136d573d6000803e3d6000fd5b5067058d15e176280000600560003373ffffffffffffffffffffffffffffffffffffffff1673ffffffffffffffffffffffffffffffffffffffff16815260200190815260200160002060008282546113c59190611f9d565b9250508190555067058d15e176280000600160003373ffffffffffffffffffffffffffffffffffffffff1673ffffffffffffffffffffffffffffffffffffffff16815260200190815260200160002060060160008282546114269190611f9d565b925050819055505b600b8110801561143e5750600881115b15611552573373ffffffffffffffffffffffffffffffffffffffff166108fc670853a0d2313c00009081150290604051600060405180830381858888f19350505050158015611491573d6000803e3d6000fd5b50670853a0d2313c0000600560003373ffffffffffffffffffffffffffffffffffffffff1673ffffffffffffffffffffffffffffffffffffffff16815260200190815260200160002060008282546114e99190611f9d565b92505081905550670853a0d2313c0000600160003373ffffffffffffffffffffffffffffffffffffffff1673ffffffffffffffffffffffffffffffffffffffff168152602001908152602001600020600601600082825461154a9190611f9d565b925050819055505b50565b82805461156190612022565b90600052602060002090601f01602090048101928261158357600085556115ca565b82601f1061159c57805160ff19168380011785556115ca565b828001600101855582156115ca579182015b828111156115c95782518255916020019190600101906115ae565b5b5090506115d79190611661565b5090565b8280546115e790612022565b90600052602060002090601f0160209004810192826116095760008555611650565b82601f1061162257803560ff1916838001178555611650565b82800160010185558215611650579182015b8281111561164f578235825591602001919060010190611634565b5b50905061165d9190611661565b5090565b5b8082111561167a576000816000905550600101611662565b5090565b6000819050919050565b6116918161167e565b82525050565b60006020820190506116ac6000830184611688565b92915050565b6000604051905090565b600080fd5b600080fd5b600073ffffffffffffffffffffffffffffffffffffffff82169050919050565b60006116f1826116c6565b9050919050565b611701816116e6565b811461170c57600080fd5b50565b60008135905061171e816116f8565b92915050565b60006020828403121561173a576117396116bc565b5b60006117488482850161170f565b91505092915050565b61175a8161167e565b811461176557600080fd5b50565b60008135905061177781611751565b92915050565b600060208284031215611793576117926116bc565b5b60006117a184828501611768565b91505092915050565b600080fd5b600080fd5b6000601f19601f8301169050919050565b7f4e487b7100000000000000000000000000000000000000000000000000000000600052604160045260246000fd5b6117fd826117b4565b810181811067ffffffffffffffff8211171561181c5761181b6117c5565b5b80604052505050565b600061182f6116b2565b905061183b82826117f4565b919050565b600067ffffffffffffffff82111561185b5761185a6117c5565b5b611864826117b4565b9050602081019050919050565b82818337600083830152505050565b600061189361188e84611840565b611825565b9050828152602081018484840111156118af576118ae6117af565b5b6118ba848285611871565b509392505050565b600082601f8301126118d7576118d66117aa565b5b81356118e7848260208601611880565b91505092915050565b600080fd5b600080fd5b60008083601f8401126119105761190f6117aa565b5b8235905067ffffffffffffffff81111561192d5761192c6118f0565b5b602083019150836001820283011115611949576119486118f5565b5b9250929050565b60008060008060008060a0878903121561196d5761196c6116bc565b5b600087013567ffffffffffffffff81111561198b5761198a6116c1565b5b61199789828a016118c2565b965050602087013567ffffffffffffffff8111156119b8576119b76116c1565b5b6119c489828a016118c2565b955050604087013567ffffffffffffffff8111156119e5576119e46116c1565b5b6119f189828a016118c2565b945050606087013567ffffffffffffffff811115611a1257611a116116c1565b5b611a1e89828a016118fa565b9350935050608087013567ffffffffffffffff811115611a4157611a406116c1565b5b611a4d89828a016118c2565b9150509295509295509295565b611a63816116e6565b82525050565b600081519050919050565b600082825260208201905092915050565b60005b83811015611aa3578082015181840152602081019050611a88565b83811115611ab2576000848401525b50505050565b6000611ac382611a69565b611acd8185611a74565b9350611add818560208601611a85565b611ae6816117b4565b840191505092915050565b60008115159050919050565b611b0681611af1565b82525050565b600061016082019050611b22600083018e611a5a565b8181036020830152611b34818d611ab8565b90508181036040830152611b48818c611ab8565b90508181036060830152611b5c818b611ab8565b90508181036080830152611b70818a611ab8565b905081810360a0830152611b848189611ab8565b9050611b9360c0830188611afd565b611ba060e0830187611afd565b611bae610100830186611688565b611bbc610120830185611688565b611bca610140830184611688565b9c9b505050505050505050505050565b7f4f6e6c79206f776e65722063616e2063616c6c2074686973206d6574686f6400600082015250565b6000611c10601f83611a74565b9150611c1b82611bda565b602082019050919050565b60006020820190508181036000830152611c3f81611c03565b9050919050565b7f4e487b7100000000000000000000000000000000000000000000000000000000600052601160045260246000fd5b6000611c808261167e565b9150611c8b8361167e565b9250817fffffffffffffffffffffffffffffffffffffffffffffffffffffffffffffffff0483118215151615611cc457611cc3611c46565b5b828202905092915050565b600081905092915050565b50565b6000611cea600083611ccf565b9150611cf582611cda565b600082019050919050565b6000611d0b82611cdd565b9150819050919050565b7f43616c6c206661696c6564000000000000000000000000000000000000000000600082015250565b6000611d4b600b83611a74565b9150611d5682611d15565b602082019050919050565b60006020820190508181036000830152611d7a81611d3e565b9050919050565b7f796f75277265206e6f7420726567697374726564000000000000000000000000600082015250565b6000611db7601483611a74565b9150611dc282611d81565b602082019050919050565b60006020820190508181036000830152611de681611daa565b9050919050565b7f616c726561647920726567697374726564000000000000000000000000000000600082015250565b6000611e23601183611a74565b9150611e2e82611ded565b602082019050919050565b60006020820190508181036000830152611e5281611e16565b9050919050565b7f5265676973746572206265666f7265207061796d656e74000000000000000000600082015250565b6000611e8f601783611a74565b9150611e9a82611e59565b602082019050919050565b60006020820190508181036000830152611ebe81611e82565b9050919050565b7f616c726561647920706179656400000000000000000000000000000000000000600082015250565b6000611efb600d83611a74565b9150611f0682611ec5565b602082019050919050565b60006020820190508181036000830152611f2a81611eee565b9050919050565b7f4e65656420746f207061792065786163746c7920314554480000000000000000600082015250565b6000611f67601883611a74565b9150611f7282611f31565b602082019050919050565b60006020820190508181036000830152611f9681611f5a565b9050919050565b6000611fa88261167e565b9150611fb38361167e565b9250827fffffffffffffffffffffffffffffffffffffffffffffffffffffffffffffffff03821115611fe857611fe7611c46565b5b828201905092915050565b7f4e487b7100000000000000000000000000000000000000000000000000000000600052602260045260246000fd5b6000600282049050600182168061203a57607f821691505b60208210810361204d5761204c611ff3565b5b50919050565b7f796f7520646f6e2774206e65656420746f206265207265696d626f7273736564600082015250565b6000612089602083611a74565b915061209482612053565b602082019050919050565b600060208201905081810360008301526120b88161207c565b9050919050565b7f796f75206e65656420746f2070617920796f7572206665657300000000000000600082015250565b60006120f5601983611a74565b9150612100826120bf565b602082019050919050565b60006020820190508181036000830152612124816120e8565b905091905056fea2646970667358221220c4b388f398b075d7d27743fbdb6c64a35e5db67e87313085bb6df02c49631bbc64736f6c634300080e0033",
  "immutableReferences": {},
  "source": "//SPDX-License-Identifier: MIT\r\n\r\npragma solidity ^0.8.14;\r\ncontract Inssurance{\r\n    mapping(uint256=>Farmer) farmers;\r\n    mapping(address=>Farmer) addressesToFarmers;\r\n    mapping(address=>uint) addressesToDate;\r\n    uint256 public fees = 10000000000000000;\r\n    address payable contractOwner;\r\n    mapping(address => uint256) public addressToAmountReimb;\r\n    \r\n    //uint256 id;\r\n    //mapping(uint256=>)\r\n    struct Farmer{\r\n        string userName;\r\n\t\tstring email;\r\n\t\tstring number;\r\n\t\tstring x;\r\n\t\tstring y;\r\n        uint amountFunded;\r\n        uint amountReimb;\r\n        address payable farmerAddress;\r\n        bool registred ;\r\n        bool payed;\r\n        uint expirationDate;\r\n    }\r\n    constructor(){\r\n        contractOwner = payable(msg.sender);\r\n        //id = 0;\r\n    }\r\n    function getBalance() public view returns(uint256){\r\n        return address(this).balance;\r\n    }\r\n    \r\n    function register(string memory _name, string memory _email, string memory _number, string calldata _x, string memory _y)public{\r\n        require(addressesToFarmers[msg.sender].registred ==false, \"already registred\");\r\n        //addressesToFarmers[farmers[id].farmerAddress] = farmer;\r\n        addressesToFarmers[msg.sender].userName = _name;\r\n        addressesToFarmers[msg.sender].email=_email;\r\n        addressesToFarmers[msg.sender].number = _number;\r\n        addressesToFarmers[msg.sender].x = _x;\r\n        addressesToFarmers[msg.sender].y = _y;\r\n        addressesToFarmers[msg.sender].registred=true;\r\n        addressesToFarmers[msg.sender].farmerAddress = payable(msg.sender);\r\n        addressesToFarmers[msg.sender].payed = false;\r\n        //id+=1;\r\n    }\r\n    function pay(uint time) public payable{\r\n        require(addressesToFarmers[msg.sender].registred==true,\"Register before payment\");\r\n        require(addressesToFarmers[msg.sender].payed == false, \"already payed\");\r\n        require(msg.value>fees,\"Need to pay exactly 1ETH\");\r\n        addressesToFarmers[msg.sender].payed =true;\r\n        addressesToFarmers[msg.sender].amountFunded +=msg.value;\r\n        addressesToFarmers[msg.sender].expirationDate =time;\r\n\r\n    }\r\n    \r\n    function getFarmer(address _add) public view returns(address farmerAddress, string memory name,string memory email, string memory number, string memory x, string memory y, bool registred,bool payed, uint amountFunded, uint amountReimb, uint t){\r\n        farmerAddress = addressesToFarmers[_add].farmerAddress;\r\n        name = addressesToFarmers[_add].userName;\r\n        registred = addressesToFarmers[_add].registred;\r\n        payed = addressesToFarmers[_add].payed;\r\n        email = addressesToFarmers[_add].email;\r\n        number = addressesToFarmers[_add].number;\r\n        x = addressesToFarmers[_add].x;\r\n        y = addressesToFarmers[_add].y;\r\n        amountFunded = addressesToFarmers[_add].amountFunded;\r\n        amountReimb = addressesToFarmers[_add].amountReimb;\r\n        t = addressesToFarmers[_add].expirationDate;\r\n        return(farmerAddress, name, email, number, x, y, registred, payed, amountFunded, amountReimb, t);\r\n\r\n    }\r\n\r\n    function withdraw(uint value) public onlyOwner{\r\n        uint value1 = value * 10**18;\r\n        (bool callSuccess, ) = payable(msg.sender).call{value: value1}(\"\");\r\n        require(callSuccess, \"Call failed\");\r\n    }\r\n\r\n    function remboursser (uint damage) external {\r\n        require(damage > 3, \"you don't need to be reimborssed\");\r\n        require(addressesToFarmers[msg.sender].registred==true,\"you're not registred\");\r\n        require(addressesToFarmers[msg.sender].payed == true, \"you need to pay your fees\"); \r\n        if(damage<6){\r\n        payable(msg.sender).transfer(0.3*10**18);\r\n\t\taddressToAmountReimb[msg.sender] += 0.3*10**18;\r\n        addressesToFarmers[msg.sender].amountReimb += 0.3*10**18;\r\n        }\r\n        if((damage <=8) && (damage>=6)){\r\n        payable(msg.sender).transfer(0.4*10**18);\r\n\t\taddressToAmountReimb[msg.sender] += 0.4*10**18;\r\n        addressesToFarmers[msg.sender].amountReimb += 0.4*10**18;\r\n        }\r\n        if((damage <11) && (damage>8)){\r\n        payable(msg.sender).transfer(0.6*10**18);\r\n\t\taddressToAmountReimb[msg.sender] += 0.6*10**18;\r\n        addressesToFarmers[msg.sender].amountReimb += 0.6*10**18;\r\n        }\r\n    }\r\n\r\n    modifier onlyOwner {\r\n\t\trequire(msg.sender==contractOwner,\"Only owner can call this method\");\r\n\t\t_;\r\n\t}\r\n\r\n    function unregister(address farmerAddress) public{\r\n        require(addressesToFarmers[farmerAddress].registred==true,\"you're not registred\");\r\n\t\taddressesToFarmers[farmerAddress].payed = false;\r\n\t}\r\n    \r\n}",
  "sourcePath": "C:\\Users\\Yassi\\OneDrive\\Bureau\\blockChain\\tarou9a\\inssurance\\contracts\\Inssurance.sol",
  "compiler": {
    "name": "solc",
    "version": "0.8.14+commit.80d49f37.Emscripten.clang"
  },
  "schemaVersion": "3.4.11",
  "updatedAt": "2022-12-11T02:04:37.498Z",
  "networkType": "ethereum",
  "devdoc": {
    "kind": "dev",
    "methods": {},
    "version": 1
  },
  "userdoc": {
    "kind": "user",
    "methods": {},
    "version": 1
  }
}